{
  "_format": "hh-sol-artifact-1",
  "contractName": "RobotNFT",
  "sourceName": "contracts/RobotNFT.sol",
  "abi": [
    {
      "inputs": [],
      "stateMutability": "payable",
      "type": "constructor"
    },
    {
      "anonymous": false,
      "inputs": [
        {
          "indexed": true,
          "internalType": "address",
          "name": "owner",
          "type": "address"
        },
        {
          "indexed": true,
          "internalType": "address",
          "name": "approved",
          "type": "address"
        },
        {
          "indexed": true,
          "internalType": "uint256",
          "name": "tokenId",
          "type": "uint256"
        }
      ],
      "name": "Approval",
      "type": "event"
    },
    {
      "anonymous": false,
      "inputs": [
        {
          "indexed": true,
          "internalType": "address",
          "name": "owner",
          "type": "address"
        },
        {
          "indexed": true,
          "internalType": "address",
          "name": "operator",
          "type": "address"
        },
        {
          "indexed": false,
          "internalType": "bool",
          "name": "approved",
          "type": "bool"
        }
      ],
      "name": "ApprovalForAll",
      "type": "event"
    },
    {
      "anonymous": false,
      "inputs": [
        {
          "indexed": true,
          "internalType": "address",
          "name": "previousOwner",
          "type": "address"
        },
        {
          "indexed": true,
          "internalType": "address",
          "name": "newOwner",
          "type": "address"
        }
      ],
      "name": "OwnershipTransferred",
      "type": "event"
    },
    {
      "anonymous": false,
      "inputs": [
        {
          "indexed": true,
          "internalType": "address",
          "name": "from",
          "type": "address"
        },
        {
          "indexed": true,
          "internalType": "address",
          "name": "to",
          "type": "address"
        },
        {
          "indexed": true,
          "internalType": "uint256",
          "name": "tokenId",
          "type": "uint256"
        }
      ],
      "name": "Transfer",
      "type": "event"
    },
    {
      "inputs": [
        {
          "internalType": "address",
          "name": "to",
          "type": "address"
        },
        {
          "internalType": "uint256",
          "name": "tokenId",
          "type": "uint256"
        }
      ],
      "name": "approve",
      "outputs": [],
      "stateMutability": "nonpayable",
      "type": "function"
    },
    {
      "inputs": [
        {
          "internalType": "address",
          "name": "owner",
          "type": "address"
        }
      ],
      "name": "balanceOf",
      "outputs": [
        {
          "internalType": "uint256",
          "name": "",
          "type": "uint256"
        }
      ],
      "stateMutability": "view",
      "type": "function"
    },
    {
      "inputs": [
        {
          "internalType": "uint256",
          "name": "tokenId",
          "type": "uint256"
        }
      ],
      "name": "getApproved",
      "outputs": [
        {
          "internalType": "address",
          "name": "",
          "type": "address"
        }
      ],
      "stateMutability": "view",
      "type": "function"
    },
    {
      "inputs": [
        {
          "internalType": "address",
          "name": "owner",
          "type": "address"
        },
        {
          "internalType": "address",
          "name": "operator",
          "type": "address"
        }
      ],
      "name": "isApprovedForAll",
      "outputs": [
        {
          "internalType": "bool",
          "name": "",
          "type": "bool"
        }
      ],
      "stateMutability": "view",
      "type": "function"
    },
    {
      "inputs": [
        {
          "internalType": "uint256",
          "name": "quantity_",
          "type": "uint256"
        }
      ],
      "name": "mint",
      "outputs": [],
      "stateMutability": "payable",
      "type": "function"
    },
    {
      "inputs": [],
      "name": "name",
      "outputs": [
        {
          "internalType": "string",
          "name": "",
          "type": "string"
        }
      ],
      "stateMutability": "view",
      "type": "function"
    },
    {
      "inputs": [],
      "name": "owner",
      "outputs": [
        {
          "internalType": "address",
          "name": "",
          "type": "address"
        }
      ],
      "stateMutability": "view",
      "type": "function"
    },
    {
      "inputs": [
        {
          "internalType": "uint256",
          "name": "tokenId",
          "type": "uint256"
        }
      ],
      "name": "ownerOf",
      "outputs": [
        {
          "internalType": "address",
          "name": "",
          "type": "address"
        }
      ],
      "stateMutability": "view",
      "type": "function"
    },
    {
      "inputs": [],
      "name": "renounceOwnership",
      "outputs": [],
      "stateMutability": "nonpayable",
      "type": "function"
    },
    {
      "inputs": [
        {
          "internalType": "address",
          "name": "from",
          "type": "address"
        },
        {
          "internalType": "address",
          "name": "to",
          "type": "address"
        },
        {
          "internalType": "uint256",
          "name": "tokenId",
          "type": "uint256"
        }
      ],
      "name": "safeTransferFrom",
      "outputs": [],
      "stateMutability": "nonpayable",
      "type": "function"
    },
    {
      "inputs": [
        {
          "internalType": "address",
          "name": "from",
          "type": "address"
        },
        {
          "internalType": "address",
          "name": "to",
          "type": "address"
        },
        {
          "internalType": "uint256",
          "name": "tokenId",
          "type": "uint256"
        },
        {
          "internalType": "bytes",
          "name": "_data",
          "type": "bytes"
        }
      ],
      "name": "safeTransferFrom",
      "outputs": [],
      "stateMutability": "nonpayable",
      "type": "function"
    },
    {
      "inputs": [
        {
          "internalType": "address",
          "name": "operator",
          "type": "address"
        },
        {
          "internalType": "bool",
          "name": "approved",
          "type": "bool"
        }
      ],
      "name": "setApprovalForAll",
      "outputs": [],
      "stateMutability": "nonpayable",
      "type": "function"
    },
    {
      "inputs": [
        {
          "internalType": "string",
          "name": "baseTokenUri_",
          "type": "string"
        }
      ],
      "name": "setBaseTokenUri",
      "outputs": [],
      "stateMutability": "nonpayable",
      "type": "function"
    },
    {
      "inputs": [
        {
          "internalType": "bool",
          "name": "isPublicMintEnabled_",
          "type": "bool"
        }
      ],
      "name": "setIsPublicMintEnabled",
      "outputs": [],
      "stateMutability": "nonpayable",
      "type": "function"
    },
    {
      "inputs": [
        {
          "internalType": "bytes4",
          "name": "interfaceId",
          "type": "bytes4"
        }
      ],
      "name": "supportsInterface",
      "outputs": [
        {
          "internalType": "bool",
          "name": "",
          "type": "bool"
        }
      ],
      "stateMutability": "view",
      "type": "function"
    },
    {
      "inputs": [],
      "name": "symbol",
      "outputs": [
        {
          "internalType": "string",
          "name": "",
          "type": "string"
        }
      ],
      "stateMutability": "view",
      "type": "function"
    },
    {
      "inputs": [
        {
          "internalType": "uint256",
          "name": "tokenId_",
          "type": "uint256"
        }
      ],
      "name": "tokenURI",
      "outputs": [
        {
          "internalType": "string",
          "name": "",
          "type": "string"
        }
      ],
      "stateMutability": "view",
      "type": "function"
    },
    {
      "inputs": [
        {
          "internalType": "address",
          "name": "from",
          "type": "address"
        },
        {
          "internalType": "address",
          "name": "to",
          "type": "address"
        },
        {
          "internalType": "uint256",
          "name": "tokenId",
          "type": "uint256"
        }
      ],
      "name": "transferFrom",
      "outputs": [],
      "stateMutability": "nonpayable",
      "type": "function"
    },
    {
      "inputs": [
        {
          "internalType": "address",
          "name": "newOwner",
          "type": "address"
        }
      ],
      "name": "transferOwnership",
      "outputs": [],
      "stateMutability": "nonpayable",
      "type": "function"
    },
    {
      "inputs": [
        {
          "internalType": "address",
          "name": "",
          "type": "address"
        }
      ],
      "name": "walletMints",
      "outputs": [
        {
          "internalType": "uint256",
          "name": "",
          "type": "uint256"
        }
      ],
      "stateMutability": "view",
      "type": "function"
    },
    {
      "inputs": [],
      "name": "withdraw",
      "outputs": [],
      "stateMutability": "nonpayable",
      "type": "function"
    }
  ],
  "bytecode": "0x60806040526040518060400160405280600881526020017f526f626f744e46540000000000000000000000000000000000000000000000008152506040518060400160405280600581526020017f524e464654000000000000000000000000000000000000000000000000000000815250816000908051906020019062000088929190620001bf565b508060019080519060200190620000a1929190620001bf565b505050620000c4620000b8620000f160201b60201c565b620000f960201b60201c565b66470de4df82000060078190555060006008819055506103e86009819055506003600a81905550620002d4565b600033905090565b6000600660009054906101000a900473ffffffffffffffffffffffffffffffffffffffff16905081600660006101000a81548173ffffffffffffffffffffffffffffffffffffffff021916908373ffffffffffffffffffffffffffffffffffffffff1602179055508173ffffffffffffffffffffffffffffffffffffffff168173ffffffffffffffffffffffffffffffffffffffff167f8be0079c531659141344cd1fd0a4f28419497f9722a3daafe3b4186f6b6457e060405160405180910390a35050565b828054620001cd906200026f565b90600052602060002090601f016020900481019282620001f157600085556200023d565b82601f106200020c57805160ff19168380011785556200023d565b828001600101855582156200023d579182015b828111156200023c5782518255916020019190600101906200021f565b5b5090506200024c919062000250565b5090565b5b808211156200026b57600081600090555060010162000251565b5090565b600060028204905060018216806200028857607f821691505b602082108114156200029f576200029e620002a5565b5b50919050565b7f4e487b7100000000000000000000000000000000000000000000000000000000600052602260045260246000fd5b61359280620002e46000396000f3fe60806040526004361061012a5760003560e01c8063715018a6116100ab578063a22cb4651161006f578063a22cb465146103bb578063b88d4fde146103e4578063c87b56dd1461040d578063e985e9c51461044a578063f0293fd314610487578063f2fde38b146104c45761012a565b8063715018a6146103095780638da5cb5b1461032057806395652cfa1461034b57806395d89b4114610374578063a0712d681461039f5761012a565b806323b872dd116100f257806323b872dd146102265780633ccfd60b1461024f57806342842e0e146102665780636352211e1461028f57806370a08231146102cc5761012a565b806301ffc9a71461012f57806306fdde031461016c578063081812fc14610197578063095ea7b3146101d45780632373ac22146101fd575b600080fd5b34801561013b57600080fd5b50610156600480360381019061015191906122d0565b6104ed565b60405161016391906128af565b60405180910390f35b34801561017857600080fd5b506101816105cf565b60405161018e91906128ca565b60405180910390f35b3480156101a357600080fd5b506101be60048036038101906101b99190612367565b610661565b6040516101cb9190612848565b60405180910390f35b3480156101e057600080fd5b506101fb60048036038101906101f6919061226b565b6106e6565b005b34801561020957600080fd5b50610224600480360381019061021f91906122a7565b6107fe565b005b34801561023257600080fd5b5061024d60048036038101906102489190612165565b610897565b005b34801561025b57600080fd5b506102646108f7565b005b34801561027257600080fd5b5061028d60048036038101906102889190612165565b610a44565b005b34801561029b57600080fd5b506102b660048036038101906102b19190612367565b610a64565b6040516102c39190612848565b60405180910390f35b3480156102d857600080fd5b506102f360048036038101906102ee9190612100565b610b16565b6040516103009190612b8c565b60405180910390f35b34801561031557600080fd5b5061031e610bce565b005b34801561032c57600080fd5b50610335610c56565b6040516103429190612848565b60405180910390f35b34801561035757600080fd5b50610372600480360381019061036d9190612322565b610c80565b005b34801561038057600080fd5b50610389610d12565b60405161039691906128ca565b60405180910390f35b6103b960048036038101906103b49190612367565b610da4565b005b3480156103c757600080fd5b506103e260048036038101906103dd919061222f565b610f7b565b005b3480156103f057600080fd5b5061040b600480360381019061040691906121b4565b610f91565b005b34801561041957600080fd5b50610434600480360381019061042f9190612367565b610ff3565b60405161044191906128ca565b60405180910390f35b34801561045657600080fd5b50610471600480360381019061046c9190612129565b61106f565b60405161047e91906128af565b60405180910390f35b34801561049357600080fd5b506104ae60048036038101906104a99190612100565b611103565b6040516104bb9190612b8c565b60405180910390f35b3480156104d057600080fd5b506104eb60048036038101906104e69190612100565b61111b565b005b60007f80ac58cd000000000000000000000000000000000000000000000000000000007bffffffffffffffffffffffffffffffffffffffffffffffffffffffff1916827bffffffffffffffffffffffffffffffffffffffffffffffffffffffff191614806105b857507f5b5e139f000000000000000000000000000000000000000000000000000000007bffffffffffffffffffffffffffffffffffffffffffffffffffffffff1916827bffffffffffffffffffffffffffffffffffffffffffffffffffffffff1916145b806105c857506105c782611213565b5b9050919050565b6060600080546105de90612e2b565b80601f016020809104026020016040519081016040528092919081815260200182805461060a90612e2b565b80156106575780601f1061062c57610100808354040283529160200191610657565b820191906000526020600020905b81548152906001019060200180831161063a57829003601f168201915b5050505050905090565b600061066c8261127d565b6106ab576040517f08c379a00000000000000000000000000000000000000000000000000000000081526004016106a290612a6c565b60405180910390fd5b6004600083815260200190815260200160002060009054906101000a900473ffffffffffffffffffffffffffffffffffffffff169050919050565b60006106f182610a64565b90508073ffffffffffffffffffffffffffffffffffffffff168373ffffffffffffffffffffffffffffffffffffffff161415610762576040517f08c379a000000000000000000000000000000000000000000000000000000000815260040161075990612aec565b60405180910390fd5b8073ffffffffffffffffffffffffffffffffffffffff166107816112e9565b73ffffffffffffffffffffffffffffffffffffffff1614806107b057506107af816107aa6112e9565b61106f565b5b6107ef576040517f08c379a00000000000000000000000000000000000000000000000000000000081526004016107e6906129ec565b60405180910390fd5b6107f983836112f1565b505050565b6108066112e9565b73ffffffffffffffffffffffffffffffffffffffff16610824610c56565b73ffffffffffffffffffffffffffffffffffffffff161461087a576040517f08c379a000000000000000000000000000000000000000000000000000000000815260040161087190612a8c565b60405180910390fd5b80600b60006101000a81548160ff02191690831515021790555050565b6108a86108a26112e9565b826113aa565b6108e7576040517f08c379a00000000000000000000000000000000000000000000000000000000081526004016108de90612b0c565b60405180910390fd5b6108f2838383611488565b505050565b6108ff6112e9565b73ffffffffffffffffffffffffffffffffffffffff1661091d610c56565b73ffffffffffffffffffffffffffffffffffffffff1614610973576040517f08c379a000000000000000000000000000000000000000000000000000000000815260040161096a90612a8c565b60405180910390fd5b6000600d60009054906101000a900473ffffffffffffffffffffffffffffffffffffffff1673ffffffffffffffffffffffffffffffffffffffff16476040516109bb90612833565b60006040518083038185875af1925050503d80600081146109f8576040519150601f19603f3d011682016040523d82523d6000602084013e6109fd565b606091505b5050905080610a41576040517f08c379a0000000000000000000000000000000000000000000000000000000008152600401610a389061296c565b60405180910390fd5b50565b610a5f83838360405180602001604052806000815250610f91565b505050565b6000806002600084815260200190815260200160002060009054906101000a900473ffffffffffffffffffffffffffffffffffffffff169050600073ffffffffffffffffffffffffffffffffffffffff168173ffffffffffffffffffffffffffffffffffffffff161415610b0d576040517f08c379a0000000000000000000000000000000000000000000000000000000008152600401610b0490612a2c565b60405180910390fd5b80915050919050565b60008073ffffffffffffffffffffffffffffffffffffffff168273ffffffffffffffffffffffffffffffffffffffff161415610b87576040517f08c379a0000000000000000000000000000000000000000000000000000000008152600401610b7e90612a0c565b60405180910390fd5b600360008373ffffffffffffffffffffffffffffffffffffffff1673ffffffffffffffffffffffffffffffffffffffff168152602001908152602001600020549050919050565b610bd66112e9565b73ffffffffffffffffffffffffffffffffffffffff16610bf4610c56565b73ffffffffffffffffffffffffffffffffffffffff1614610c4a576040517f08c379a0000000000000000000000000000000000000000000000000000000008152600401610c4190612a8c565b60405180910390fd5b610c5460006116ef565b565b6000600660009054906101000a900473ffffffffffffffffffffffffffffffffffffffff16905090565b610c886112e9565b73ffffffffffffffffffffffffffffffffffffffff16610ca6610c56565b73ffffffffffffffffffffffffffffffffffffffff1614610cfc576040517f08c379a0000000000000000000000000000000000000000000000000000000008152600401610cf390612a8c565b60405180910390fd5b8181600c9190610d0d929190611f42565b505050565b606060018054610d2190612e2b565b80601f0160208091040260200160405190810160405280929190818152602001828054610d4d90612e2b565b8015610d9a5780601f10610d6f57610100808354040283529160200191610d9a565b820191906000526020600020905b815481529060010190602001808311610d7d57829003601f168201915b5050505050905090565b600b60009054906101000a900460ff16610df3576040517f08c379a0000000000000000000000000000000000000000000000000000000008152600401610dea90612acc565b60405180910390fd5b60075481610e019190612ce7565b3414610e42576040517f08c379a0000000000000000000000000000000000000000000000000000000008152600401610e3990612b4c565b60405180910390fd5b60095481600854610e539190612c60565b1115610e94576040517f08c379a0000000000000000000000000000000000000000000000000000000008152600401610e8b90612b2c565b60405180910390fd5b600a5481600e60003373ffffffffffffffffffffffffffffffffffffffff1673ffffffffffffffffffffffffffffffffffffffff16815260200190815260200160002054610ee29190612c60565b1115610f23576040517f08c379a0000000000000000000000000000000000000000000000000000000008152600401610f1a90612aac565b60405180910390fd5b60005b81811015610f775760006001600854610f3f9190612c60565b9050610f4b33826117b5565b60086000815480929190610f5e90612e8e565b9190505550508080610f6f90612e8e565b915050610f26565b5050565b610f8d610f866112e9565b83836117d3565b5050565b610fa2610f9c6112e9565b836113aa565b610fe1576040517f08c379a0000000000000000000000000000000000000000000000000000000008152600401610fd890612b0c565b60405180910390fd5b610fed84848484611940565b50505050565b6060610ffe8261127d565b61103d576040517f08c379a000000000000000000000000000000000000000000000000000000000815260040161103490612b6c565b60405180910390fd5b600c6110488361199c565b604051602001611059929190612804565b6040516020818303038152906040529050919050565b6000600560008473ffffffffffffffffffffffffffffffffffffffff1673ffffffffffffffffffffffffffffffffffffffff16815260200190815260200160002060008373ffffffffffffffffffffffffffffffffffffffff1673ffffffffffffffffffffffffffffffffffffffff16815260200190815260200160002060009054906101000a900460ff16905092915050565b600e6020528060005260406000206000915090505481565b6111236112e9565b73ffffffffffffffffffffffffffffffffffffffff16611141610c56565b73ffffffffffffffffffffffffffffffffffffffff1614611197576040517f08c379a000000000000000000000000000000000000000000000000000000000815260040161118e90612a8c565b60405180910390fd5b600073ffffffffffffffffffffffffffffffffffffffff168173ffffffffffffffffffffffffffffffffffffffff161415611207576040517f08c379a00000000000000000000000000000000000000000000000000000000081526004016111fe9061290c565b60405180910390fd5b611210816116ef565b50565b60007f01ffc9a7000000000000000000000000000000000000000000000000000000007bffffffffffffffffffffffffffffffffffffffffffffffffffffffff1916827bffffffffffffffffffffffffffffffffffffffffffffffffffffffff1916149050919050565b60008073ffffffffffffffffffffffffffffffffffffffff166002600084815260200190815260200160002060009054906101000a900473ffffffffffffffffffffffffffffffffffffffff1673ffffffffffffffffffffffffffffffffffffffff1614159050919050565b600033905090565b816004600083815260200190815260200160002060006101000a81548173ffffffffffffffffffffffffffffffffffffffff021916908373ffffffffffffffffffffffffffffffffffffffff160217905550808273ffffffffffffffffffffffffffffffffffffffff1661136483610a64565b73ffffffffffffffffffffffffffffffffffffffff167f8c5be1e5ebec7d5bd14f71427d1e84f3dd0314c0f7b2291e5b200ac8c7c3b92560405160405180910390a45050565b60006113b58261127d565b6113f4576040517f08c379a00000000000000000000000000000000000000000000000000000000081526004016113eb906129cc565b60405180910390fd5b60006113ff83610a64565b90508073ffffffffffffffffffffffffffffffffffffffff168473ffffffffffffffffffffffffffffffffffffffff16148061146e57508373ffffffffffffffffffffffffffffffffffffffff1661145684610661565b73ffffffffffffffffffffffffffffffffffffffff16145b8061147f575061147e818561106f565b5b91505092915050565b8273ffffffffffffffffffffffffffffffffffffffff166114a882610a64565b73ffffffffffffffffffffffffffffffffffffffff16146114fe576040517f08c379a00000000000000000000000000000000000000000000000000000000081526004016114f59061292c565b60405180910390fd5b600073ffffffffffffffffffffffffffffffffffffffff168273ffffffffffffffffffffffffffffffffffffffff16141561156e576040517f08c379a00000000000000000000000000000000000000000000000000000000081526004016115659061298c565b60405180910390fd5b611579838383611b49565b6115846000826112f1565b6001600360008573ffffffffffffffffffffffffffffffffffffffff1673ffffffffffffffffffffffffffffffffffffffff16815260200190815260200160002060008282546115d49190612d41565b925050819055506001600360008473ffffffffffffffffffffffffffffffffffffffff1673ffffffffffffffffffffffffffffffffffffffff168152602001908152602001600020600082825461162b9190612c60565b92505081905550816002600083815260200190815260200160002060006101000a81548173ffffffffffffffffffffffffffffffffffffffff021916908373ffffffffffffffffffffffffffffffffffffffff160217905550808273ffffffffffffffffffffffffffffffffffffffff168473ffffffffffffffffffffffffffffffffffffffff167fddf252ad1be2c89b69c2b068fc378daa952ba7f163c4a11628f55a4df523b3ef60405160405180910390a46116ea838383611b4e565b505050565b6000600660009054906101000a900473ffffffffffffffffffffffffffffffffffffffff16905081600660006101000a81548173ffffffffffffffffffffffffffffffffffffffff021916908373ffffffffffffffffffffffffffffffffffffffff1602179055508173ffffffffffffffffffffffffffffffffffffffff168173ffffffffffffffffffffffffffffffffffffffff167f8be0079c531659141344cd1fd0a4f28419497f9722a3daafe3b4186f6b6457e060405160405180910390a35050565b6117cf828260405180602001604052806000815250611b53565b5050565b8173ffffffffffffffffffffffffffffffffffffffff168373ffffffffffffffffffffffffffffffffffffffff161415611842576040517f08c379a0000000000000000000000000000000000000000000000000000000008152600401611839906129ac565b60405180910390fd5b80600560008573ffffffffffffffffffffffffffffffffffffffff1673ffffffffffffffffffffffffffffffffffffffff16815260200190815260200160002060008473ffffffffffffffffffffffffffffffffffffffff1673ffffffffffffffffffffffffffffffffffffffff16815260200190815260200160002060006101000a81548160ff0219169083151502179055508173ffffffffffffffffffffffffffffffffffffffff168373ffffffffffffffffffffffffffffffffffffffff167f17307eab39ab6107e8899845ad3d59bd9653f200f220920489ca2b5937696c318360405161193391906128af565b60405180910390a3505050565b61194b848484611488565b61195784848484611bae565b611996576040517f08c379a000000000000000000000000000000000000000000000000000000000815260040161198d906128ec565b60405180910390fd5b50505050565b606060008214156119e4576040518060400160405280600181526020017f30000000000000000000000000000000000000000000000000000000000000008152509050611b44565b600082905060005b60008214611a165780806119ff90612e8e565b915050600a82611a0f9190612cb6565b91506119ec565b60008167ffffffffffffffff811115611a58577f4e487b7100000000000000000000000000000000000000000000000000000000600052604160045260246000fd5b6040519080825280601f01601f191660200182016040528015611a8a5781602001600182028036833780820191505090505b5090505b60008514611b3d57600182611aa39190612d41565b9150600a85611ab29190612ed7565b6030611abe9190612c60565b60f81b818381518110611afa577f4e487b7100000000000000000000000000000000000000000000000000000000600052603260045260246000fd5b60200101907effffffffffffffffffffffffffffffffffffffffffffffffffffffffffffff1916908160001a905350600a85611b369190612cb6565b9450611a8e565b8093505050505b919050565b505050565b505050565b611b5d8383611d45565b611b6a6000848484611bae565b611ba9576040517f08c379a0000000000000000000000000000000000000000000000000000000008152600401611ba0906128ec565b60405180910390fd5b505050565b6000611bcf8473ffffffffffffffffffffffffffffffffffffffff16611f1f565b15611d38578373ffffffffffffffffffffffffffffffffffffffff1663150b7a02611bf86112e9565b8786866040518563ffffffff1660e01b8152600401611c1a9493929190612863565b602060405180830381600087803b158015611c3457600080fd5b505af1925050508015611c6557506040513d601f19601f82011682018060405250810190611c6291906122f9565b60015b611ce8573d8060008114611c95576040519150601f19603f3d011682016040523d82523d6000602084013e611c9a565b606091505b50600081511415611ce0576040517f08c379a0000000000000000000000000000000000000000000000000000000008152600401611cd7906128ec565b60405180910390fd5b805181602001fd5b63150b7a0260e01b7bffffffffffffffffffffffffffffffffffffffffffffffffffffffff1916817bffffffffffffffffffffffffffffffffffffffffffffffffffffffff191614915050611d3d565b600190505b949350505050565b600073ffffffffffffffffffffffffffffffffffffffff168273ffffffffffffffffffffffffffffffffffffffff161415611db5576040517f08c379a0000000000000000000000000000000000000000000000000000000008152600401611dac90612a4c565b60405180910390fd5b611dbe8161127d565b15611dfe576040517f08c379a0000000000000000000000000000000000000000000000000000000008152600401611df59061294c565b60405180910390fd5b611e0a60008383611b49565b6001600360008473ffffffffffffffffffffffffffffffffffffffff1673ffffffffffffffffffffffffffffffffffffffff1681526020019081526020016000206000828254611e5a9190612c60565b92505081905550816002600083815260200190815260200160002060006101000a81548173ffffffffffffffffffffffffffffffffffffffff021916908373ffffffffffffffffffffffffffffffffffffffff160217905550808273ffffffffffffffffffffffffffffffffffffffff16600073ffffffffffffffffffffffffffffffffffffffff167fddf252ad1be2c89b69c2b068fc378daa952ba7f163c4a11628f55a4df523b3ef60405160405180910390a4611f1b60008383611b4e565b5050565b6000808273ffffffffffffffffffffffffffffffffffffffff163b119050919050565b828054611f4e90612e2b565b90600052602060002090601f016020900481019282611f705760008555611fb7565b82601f10611f8957803560ff1916838001178555611fb7565b82800160010185558215611fb7579182015b82811115611fb6578235825591602001919060010190611f9b565b5b509050611fc49190611fc8565b5090565b5b80821115611fe1576000816000905550600101611fc9565b5090565b6000611ff8611ff384612bcc565b612ba7565b90508281526020810184848401111561201057600080fd5b61201b848285612de9565b509392505050565b60008135905061203281613500565b92915050565b60008135905061204781613517565b92915050565b60008135905061205c8161352e565b92915050565b6000815190506120718161352e565b92915050565b600082601f83011261208857600080fd5b8135612098848260208601611fe5565b91505092915050565b60008083601f8401126120b357600080fd5b8235905067ffffffffffffffff8111156120cc57600080fd5b6020830191508360018202830111156120e457600080fd5b9250929050565b6000813590506120fa81613545565b92915050565b60006020828403121561211257600080fd5b600061212084828501612023565b91505092915050565b6000806040838503121561213c57600080fd5b600061214a85828601612023565b925050602061215b85828601612023565b9150509250929050565b60008060006060848603121561217a57600080fd5b600061218886828701612023565b935050602061219986828701612023565b92505060406121aa868287016120eb565b9150509250925092565b600080600080608085870312156121ca57600080fd5b60006121d887828801612023565b94505060206121e987828801612023565b93505060406121fa878288016120eb565b925050606085013567ffffffffffffffff81111561221757600080fd5b61222387828801612077565b91505092959194509250565b6000806040838503121561224257600080fd5b600061225085828601612023565b925050602061226185828601612038565b9150509250929050565b6000806040838503121561227e57600080fd5b600061228c85828601612023565b925050602061229d858286016120eb565b9150509250929050565b6000602082840312156122b957600080fd5b60006122c784828501612038565b91505092915050565b6000602082840312156122e257600080fd5b60006122f08482850161204d565b91505092915050565b60006020828403121561230b57600080fd5b600061231984828501612062565b91505092915050565b6000806020838503121561233557600080fd5b600083013567ffffffffffffffff81111561234f57600080fd5b61235b858286016120a1565b92509250509250929050565b60006020828403121561237957600080fd5b6000612387848285016120eb565b91505092915050565b61239981612d75565b82525050565b6123a881612d87565b82525050565b60006123b982612c12565b6123c38185612c28565b93506123d3818560208601612df8565b6123dc81612fc4565b840191505092915050565b60006123f282612c1d565b6123fc8185612c44565b935061240c818560208601612df8565b61241581612fc4565b840191505092915050565b600061242b82612c1d565b6124358185612c55565b9350612445818560208601612df8565b80840191505092915050565b6000815461245e81612e2b565b6124688186612c55565b945060018216600081146124835760018114612494576124c7565b60ff198316865281860193506124c7565b61249d85612bfd565b60005b838110156124bf578154818901526001820191506020810190506124a0565b838801955050505b50505092915050565b60006124dd603283612c44565b91506124e882612fd5565b604082019050919050565b6000612500602683612c44565b915061250b82613024565b604082019050919050565b6000612523602583612c44565b915061252e82613073565b604082019050919050565b6000612546601c83612c44565b9150612551826130c2565b602082019050919050565b6000612569601183612c44565b9150612574826130eb565b602082019050919050565b600061258c602483612c44565b915061259782613114565b604082019050919050565b60006125af601983612c44565b91506125ba82613163565b602082019050919050565b60006125d2602c83612c44565b91506125dd8261318c565b604082019050919050565b60006125f5603883612c44565b9150612600826131db565b604082019050919050565b6000612618602a83612c44565b91506126238261322a565b604082019050919050565b600061263b602983612c44565b915061264682613279565b604082019050919050565b600061265e602083612c44565b9150612669826132c8565b602082019050919050565b6000612681602c83612c44565b915061268c826132f1565b604082019050919050565b60006126a4600583612c55565b91506126af82613340565b600582019050919050565b60006126c7602083612c44565b91506126d282613369565b602082019050919050565b60006126ea601183612c44565b91506126f582613392565b602082019050919050565b600061270d601383612c44565b9150612718826133bb565b602082019050919050565b6000612730602183612c44565b915061273b826133e4565b604082019050919050565b6000612753600083612c39565b915061275e82613433565b600082019050919050565b6000612776603183612c44565b915061278182613436565b604082019050919050565b6000612799600883612c44565b91506127a482613485565b602082019050919050565b60006127bc600e83612c44565b91506127c7826134ae565b602082019050919050565b60006127df601583612c44565b91506127ea826134d7565b602082019050919050565b6127fe81612ddf565b82525050565b60006128108285612451565b915061281c8284612420565b915061282782612697565b91508190509392505050565b600061283e82612746565b9150819050919050565b600060208201905061285d6000830184612390565b92915050565b60006080820190506128786000830187612390565b6128856020830186612390565b61289260408301856127f5565b81810360608301526128a481846123ae565b905095945050505050565b60006020820190506128c4600083018461239f565b92915050565b600060208201905081810360008301526128e481846123e7565b905092915050565b60006020820190508181036000830152612905816124d0565b9050919050565b60006020820190508181036000830152612925816124f3565b9050919050565b6000602082019050818103600083015261294581612516565b9050919050565b6000602082019050818103600083015261296581612539565b9050919050565b600060208201905081810360008301526129858161255c565b9050919050565b600060208201905081810360008301526129a58161257f565b9050919050565b600060208201905081810360008301526129c5816125a2565b9050919050565b600060208201905081810360008301526129e5816125c5565b9050919050565b60006020820190508181036000830152612a05816125e8565b9050919050565b60006020820190508181036000830152612a258161260b565b9050919050565b60006020820190508181036000830152612a458161262e565b9050919050565b60006020820190508181036000830152612a6581612651565b9050919050565b60006020820190508181036000830152612a8581612674565b9050919050565b60006020820190508181036000830152612aa5816126ba565b9050919050565b60006020820190508181036000830152612ac5816126dd565b9050919050565b60006020820190508181036000830152612ae581612700565b9050919050565b60006020820190508181036000830152612b0581612723565b9050919050565b60006020820190508181036000830152612b2581612769565b9050919050565b60006020820190508181036000830152612b458161278c565b9050919050565b60006020820190508181036000830152612b65816127af565b9050919050565b60006020820190508181036000830152612b85816127d2565b9050919050565b6000602082019050612ba160008301846127f5565b92915050565b6000612bb1612bc2565b9050612bbd8282612e5d565b919050565b6000604051905090565b600067ffffffffffffffff821115612be757612be6612f95565b5b612bf082612fc4565b9050602081019050919050565b60008190508160005260206000209050919050565b600081519050919050565b600081519050919050565b600082825260208201905092915050565b600081905092915050565b600082825260208201905092915050565b600081905092915050565b6000612c6b82612ddf565b9150612c7683612ddf565b9250827fffffffffffffffffffffffffffffffffffffffffffffffffffffffffffffffff03821115612cab57612caa612f08565b5b828201905092915050565b6000612cc182612ddf565b9150612ccc83612ddf565b925082612cdc57612cdb612f37565b5b828204905092915050565b6000612cf282612ddf565b9150612cfd83612ddf565b9250817fffffffffffffffffffffffffffffffffffffffffffffffffffffffffffffffff0483118215151615612d3657612d35612f08565b5b828202905092915050565b6000612d4c82612ddf565b9150612d5783612ddf565b925082821015612d6a57612d69612f08565b5b828203905092915050565b6000612d8082612dbf565b9050919050565b60008115159050919050565b60007fffffffff0000000000000000000000000000000000000000000000000000000082169050919050565b600073ffffffffffffffffffffffffffffffffffffffff82169050919050565b6000819050919050565b82818337600083830152505050565b60005b83811015612e16578082015181840152602081019050612dfb565b83811115612e25576000848401525b50505050565b60006002820490506001821680612e4357607f821691505b60208210811415612e5757612e56612f66565b5b50919050565b612e6682612fc4565b810181811067ffffffffffffffff82111715612e8557612e84612f95565b5b80604052505050565b6000612e9982612ddf565b91507fffffffffffffffffffffffffffffffffffffffffffffffffffffffffffffffff821415612ecc57612ecb612f08565b5b600182019050919050565b6000612ee282612ddf565b9150612eed83612ddf565b925082612efd57612efc612f37565b5b828206905092915050565b7f4e487b7100000000000000000000000000000000000000000000000000000000600052601160045260246000fd5b7f4e487b7100000000000000000000000000000000000000000000000000000000600052601260045260246000fd5b7f4e487b7100000000000000000000000000000000000000000000000000000000600052602260045260246000fd5b7f4e487b7100000000000000000000000000000000000000000000000000000000600052604160045260246000fd5b6000601f19601f8301169050919050565b7f4552433732313a207472616e7366657220746f206e6f6e20455243373231526560008201527f63656976657220696d706c656d656e7465720000000000000000000000000000602082015250565b7f4f776e61626c653a206e6577206f776e657220697320746865207a65726f206160008201527f6464726573730000000000000000000000000000000000000000000000000000602082015250565b7f4552433732313a207472616e736665722066726f6d20696e636f72726563742060008201527f6f776e6572000000000000000000000000000000000000000000000000000000602082015250565b7f4552433732313a20746f6b656e20616c7265616479206d696e74656400000000600082015250565b7f7769746864726177206661696c65642021000000000000000000000000000000600082015250565b7f4552433732313a207472616e7366657220746f20746865207a65726f2061646460008201527f7265737300000000000000000000000000000000000000000000000000000000602082015250565b7f4552433732313a20617070726f766520746f2063616c6c657200000000000000600082015250565b7f4552433732313a206f70657261746f7220717565727920666f72206e6f6e657860008201527f697374656e7420746f6b656e0000000000000000000000000000000000000000602082015250565b7f4552433732313a20617070726f76652063616c6c6572206973206e6f74206f7760008201527f6e6572206e6f7220617070726f76656420666f7220616c6c0000000000000000602082015250565b7f4552433732313a2062616c616e636520717565727920666f7220746865207a6560008201527f726f206164647265737300000000000000000000000000000000000000000000602082015250565b7f4552433732313a206f776e657220717565727920666f72206e6f6e657869737460008201527f656e7420746f6b656e0000000000000000000000000000000000000000000000602082015250565b7f4552433732313a206d696e7420746f20746865207a65726f2061646472657373600082015250565b7f4552433732313a20617070726f76656420717565727920666f72206e6f6e657860008201527f697374656e7420746f6b656e0000000000000000000000000000000000000000602082015250565b7f2e6a736f6e000000000000000000000000000000000000000000000000000000600082015250565b7f4f776e61626c653a2063616c6c6572206973206e6f7420746865206f776e6572600082015250565b7f457863656564206d61782077616c6c6574000000000000000000000000000000600082015250565b7f4d696e74696e67206e6f7420656e61626c656400000000000000000000000000600082015250565b7f4552433732313a20617070726f76616c20746f2063757272656e74206f776e6560008201527f7200000000000000000000000000000000000000000000000000000000000000602082015250565b50565b7f4552433732313a207472616e736665722063616c6c6572206973206e6f74206f60008201527f776e6572206e6f7220617070726f766564000000000000000000000000000000602082015250565b7f536f6c64206f7574000000000000000000000000000000000000000000000000600082015250565b7f496e7375666669656e7420657468000000000000000000000000000000000000600082015250565b7f546f6b656e20646f6573206e6f74206578697374210000000000000000000000600082015250565b61350981612d75565b811461351457600080fd5b50565b61352081612d87565b811461352b57600080fd5b50565b61353781612d93565b811461354257600080fd5b50565b61354e81612ddf565b811461355957600080fd5b5056fea2646970667358221220594a4de6c9a3b1ed52abbba0af39536e2cbb7d295a1e28ff1be3bcd064f8fce164736f6c63430008040033",
  "linkReferences": {},
  "deployedLinkReferences": {}
}